:020000040800F2
:10000000B856002081020008F74800084D4000085B
:10001000F5480008E11200089559000800000000AA
:10002000000000000000000000000000C101000806
:10003000C5150008000000001D0200083551000829
:100040009B0200089B0200089B0200089B0200081C
:100050009B0200089B0200089B0200089B0200080C
:100060009B0200089B0200089B0200089B020008FC
:10007000CD1400089B0200089B0200089B020008A8
:10008000D9140008E51400089B0200089B02000830
:10009000E51200089B0200089B0200089B02000872
:1000A0009B0200089B020008295200089B020008DE
:1000B0009B0200089B020008455200089B020008B2
:1000C0009B0200089B0200089B0200089B0200089C
:1000D0009B02000839590008455900085159000889
:1000E0009B0200089B0200089B0200089B0200087C
:1000F0009B0200089B0200089B0200089B0200086C
:100100009B0200089B0200089B0200089B0200085B
:100110009B0200089B020008795200089B0200081D
:10012000F11400089B020008FD14000809150008DE
:100130009B0200089B0200089B0200089B0200082B
:10014000F11200089B0200089B0200089B020008B5
:100150009B0200089B020008151500086959000859
:100160009B0200089B0200089B0200089B020008FB
:100170009B0200089B0200089B0200080000000090
:100180009B0200089B0200089B0200089B020008DB
:100190009B0200089B0200089B0200089B020008CB
:1001A00000000000000000009B020008DFF80CD0F7
:1001B00000F02EFC00480047F7910008B8560020D8
:1001C0002C4B19680868B0E8F04F80F30988BFF33A
:1001D0006F8F4FF0000080F311887047000000001F
:1001E00008480068006880F308884FF0000080F33A
:1001F000148862B661B6BFF34F8FBFF36F8F00DF15
:1002000000BF00BF08ED00E0DFF80C00016841F41A
:1002100070010160704700BF88ED00E0EFF30980D6
:10022000BFF36F8F134B1A681EF0100F08BF20ED3D
:10023000108A20E9F04F106009B44FF0500080F3AD
:100240001188BFF34F8FBFF36F8F0AF0FFFC4FF0A1
:10025000000080F3118809BC19680868B0E8F04F05
:100260001EF0100F08BFB0EC108A80F30988BFF3AE
:100270006F8F704720020020EFF305807047000069
:100280000648804706480047FEE7FEE7FEE7FEE730
:10029000FEE7FEE7FEE7FEE7FEE7FEE7D5510008D2
:1002A000AD0100082DE9F05F0546002092469B460F
:1002B00088460646814640241BE02846414647467C
:1002C000224600F000FA53465A46C01A914110D314
:1002D00011461846224600F0E7F92D1A67EB01088F
:1002E0004F4622460120002100F0DEF917EB0009FD
:1002F0004E41201EA4F10104DFDC484631462A4667
:100300004346BDE8F09F40EA01039B0703D009E0A4
:1003100008C9121F08C0042AFAD203E011F8013BF1
:1003200000F8013B521EF9D27047D2B201E000F84A
:10033000012B491EFBD270470022F6E710B5134689
:100340000A4604461946FFF7F0FF204610BD2DE986
:10035000FE4F804681EA0300C00F0C46009021F05A
:10036000004123F00045B8EB0200A94105D2404608
:10037000214690461C460B46024623F0004010439F
:1003800047D0270DC7F30A00C3F30A510290401A61
:10039000019040286BDAC3F3130040F4801B0098EF
:1003A000924620B10023D2EB030A63EB0B0B0198BA
:1003B0005946C0F14002504600F076F906460D4617
:1003C00050465946019A00F08EF910EB0800614141
:1003D000002487EA115284EAE7731A4340D0009A56
:1003E00062B3019A012A4FEA075215DC001B61EB48
:1003F00002014FF0004202EA0752CDE90042001C20
:1004000041F5801132462B4600F0C5F903B0BDE836
:10041000F08F40462146F9E7001B61EB0201001C0A
:1004200041F5801300185B412018A2F5001747EB37
:10043000030140EAD570B6196D4111E06D084FEA2D
:10044000360645EAC0754FEA0752001B61EB020110
:10045000001C41F5801149084FEA30000019514154
:1004600032462B4603B0BDE8F04F00F085B9009846
:10047000012240000023D0EB020263EBE0730098FE
:1004800021464FEAE074B8EB000061EB0401E9E7B4
:1004900083F000435BE781F0004158E72DE9FE4F10
:1004A00081EA030404F0004421F0004100944FF07D
:1004B000000B23F0004350EA01045ED052EA03042B
:1004C0005BD0C3F30A54C1F30A552C44A4F2F334AD
:1004D0000194A0FB0254C1F3130141F48011C3F352
:1004E000130343F4801301FB024400FB034E840A10
:1004F000970A44EA815447EA8357A4FB07680295A8
:100500008D0A05FB07854FEA932C04FB0C54270545
:10051000029D4FEA065847EA1637B5EB08056EEB21
:10052000070C870E920E47EA811742EA8312A7FB57
:100530000201B6EB0B0164EB00042B0D43EA0C3314
:100540005E1844EB1C50DA465146E7FB0201C5F346
:1005500013044FEA0B3343EA14534FEA0432019C6D
:1005600043EA0603A4F10C040294009CCDE900B414
:1005700000F011F903B0BDE8F08F00200146F9E763
:100580000EB5C10F80EAE0700844CA07002140F2AE
:1005900033438DE80E000A460B4600F0FCF803B02A
:1005A00000BD0EB540F2334102910021CDE90011AA
:1005B0000A460B4600F0EFF803B000BD00F0004221
:1005C00030F000400AD0C10D01F56071C0F3160093
:1005D00042EA0151C208400711437047002001461A
:1005E0007047000030B5041E71F1000404DB4FF0C9
:1005F0000044404264EB0101141E73F1000405DB6A
:100600001C464FF00043524263EB04038B4208BF89
:10061000824230BD30B5041E71F1000404DB4FF09E
:100620000044404264EB0101141E73F1000405DB39
:100630001C464FF00043524263EB0403994208BF4B
:10064000904230BD01F0004330B421F0004150EA47
:10065000010206D00A0DA2F56072C1F31301002A4F
:1006600002DC30BC00207047440F44EAC104C100E2
:10067000E01830BC00EBC25000F047B830B50B4674
:10068000014600202022012409E021FA02F59D42C2
:1006900005D303FA02F5491B04FA02F52844151E96
:1006A000A2F10102F1DC30BD202A04DB203A00FA7D
:1006B00002F1002070479140C2F1200320FA03F3B9
:1006C000194390407047202A04DB203A21FA02F0B7
:1006D0000021704721FA02F3D040C2F1200291407C
:1006E000084319467047202A06DBCB17203A41FA07
:1006F00002F043EAE07306E041FA02F3D040C2F1AF
:10070000200291400843194670470029A8BF70474E
:10071000401C490008BF20F00100704710B4B0FA37
:1007200080FC00FA0CF050EA010404BF10BC7047D2
:1007300049B1CCF1200421FA04F411FA0CF118BFEC
:10074000012121430843A3EB0C01CB1D4FEA0061BB
:100750004FEA102042BF002010BC704700EBC3508E
:1007600010440029A4BF10BC7047401C490008BFBA
:1007700020F0010010BC704710B5141E73F1000486
:1007800008DA401C41F1000192185B411A4301D183
:1007900020F0010010BD2DE9F04D92469B4611B1AD
:1007A000B1FA81F202E0B0FA80F220329046FFF70F
:1007B0007BFF04460F4640EA0A0041EA0B0153461C
:1007C0005A46084313D0114653EA010019D0C8F124
:1007D00040025046FFF777FF05460E465046594601
:1007E0004246FFF761FF084305D0012004E02046A0
:1007F0003946BDE8F08D0020054346EAE0762C43FB
:1008000037430A986305E40AA0EB08000022FD0ABA
:1008100044EA47540A3002D500200146E9E70105C1
:1008200010196941DDE9084500196941BDE8F04D3D
:10083000A2E72DE9F04D81EA030404F0004B21F01A
:10084000004514464FF0000A23F0004150EA05022B
:1008500020D054EA01021DD0C5F30A570246C5F361
:100860001303C1F31300C1F30A5640F4801543F497
:100870008013A7EB0608101BD64608F2FD3873EB71
:10088000050002D308F1010801E092185B41B8F1BC
:10089000000F03DA00200146BDE8F08D00204FF480
:1008A0008011064684460EE0171B73EB050705D33F
:1008B000121B63EB050306434CEA010C49084FEA9F
:1008C000300092185B4150EA0107EDD152EA030073
:1008D00012D082EA040083EA0501084305D0101B08
:1008E000AB4106D20122002306E000224FF0004374
:1008F00002E06FF0010253101AEB06004CEB0851B6
:1009000010EB0A0041EB0B01BDE8F04DFFF734BFDF
:1009100070B521F0004303430CD0C1F30A55002405
:10092000D5EB040564EB0403D617AD1AB34102DB23
:100930000020014670BD201841EB025170BD2DE929
:10094000F04D00231A461B1A8A4103DB00200146A2
:10095000BDE8F08DC1F30A52C1F3130141F48015D3
:100960004FF0000BD10702D100186D41521E002735
:10097000044640F2FF11384601EB620A3E468046CB
:10098000024600204FF48011FFF79DFEC21971410D
:10099000BB1846EB0100B4EB030C75EB000C04D361
:1009A000E41A65EB000517460E46241908F101000C
:1009B0006D4180463428E3DDF91946EB0600091B3A
:1009C000A84103D24FF0FF32134601E00022134644
:1009D0001BEB070046EB0A51BDE8F04DFFF7CCBE1C
:1009E000C1F30A52C1F3130140F2FF3341F4801105
:1009F0009A4202DA00200146704740F233439A429D
:100A0000A2F2334202DC5242FFF75DBEFFF74CBE5A
:100A1000064C074D06E0E06840F0010394E807004B
:100A200098471034AC42F6D3FFF7C4FB8CB80008EB
:100A3000ACB8000870B5C1F30A5201F000450024BB
:100A4000C1F3130140F2FF3341F480119A4201DAFD
:100A5000002070BD40F233439A42A2F2334203DCDD
:100A60005242FFF730FE00E090402C43F1D040426C
:100A700070BD70B58C1810F8015B15F0070301D13B
:100A800010F8013B2A1106D110F8012B03E010F8F1
:100A9000016B01F8016B5B1EF9D12B0705D4002314
:100AA000521E0DD401F8013BFAE710F8013BCB1AB6
:100AB000921C03E013F8015B01F8015B521EF9D5AB
:100AC000A142D8D3002070BD464910B54A6822F42F
:100AD00040324A604A6843681A434A6001684A687B
:100AE00022F480724A6001684A68036942EA03227C
:100AF0004A6001684A6822F040724A6001684A68A8
:100B000083681A434A6001688A6822F400628A6036
:100B100001688A68C3681A438A60816A6FF07062EC
:100B2000D14201688A6822F070628A6001688A682E
:100B30000CD0836A1A438A6001688A6822F04052A6
:100B40008A6001688A68C36A1A4301E022F0405251
:100B50008A6001688A6822F002028A6001688A68F5
:100B6000037E42EA43028A6090F82010002901685F
:100B70004A680FD042F400624A6001684A6822F471
:100B800060424A6001684A68174C436A04EB433389
:100B90001A4301E022F400624A600168CA6A22F442
:100BA0007002CA620168CA6A838B104C04EB03535B
:100BB0001A43CA6201688A6822F400728A60016876
:100BC0008A6890F8303042EA43228A6001688A6875
:100BD00022F480628A6001688A68406942EA802063
:100BE000886010BD0023014000E0FFFF0000F0FF1F
:100BF00001221021014801F08CBD000000000240DC
:100C000000221021014801F084BD000000000240D4
:100C10007047000001221146014801F07ABD000032
:100C20000004024000220121014801F072BD0000D1
:100C300000040240704730B504464FF47A7502E074
:100C4000284600F004F8641EA4B2F9D230BD70B595
:100C50004FF0E02400226569A8214843A169A369F7
:100C60008B42FCD002D2A1EB030102E0A5EB03060C
:100C700031440A4419468242F1D370BD10B5FFF7E2
:100C8000C7FFFFF7D7FF07F08BFD044607F010FE04
:100C9000204310BD7CB5002000900190FFF7B0FF0D
:100CA000922000F04FF906226946122000F02CF93C
:100CB000FFF79EFF9DF801009DF80010000200B2B2
:100CC000084300EE100A474D474CF8EEC00A95ED78
:100CD000040A60EE800AC4ED000A9DF803009DF846
:100CE0000210000200B2084300EE900AF8EEE00A9B
:100CF00060EE800AC4ED010A9DF805009DF804101D
:100D0000000200B2084300EE900AF8EEE00A20EE7E
:100D1000800A84ED020AFFF785FF08226946002059
:100D200000F0F2F8FFF776FF9DF800000F2834D1AD
:100D30009DF803009DF80210000200B2084300EE87
:100D4000100AD4ED0D0AB8EEC01A95ED050A51EE61
:100D5000000AC4ED070A9DF805009DF80410000282
:100D600000B2084300EE900A94ED0E1AF8EEE00A85
:100D700010EE801A84ED081A9DF807009DF8061001
:100D8000000200B2084300EE900A94ED0F1AF8EE4C
:100D9000E00A10EE801A84ED091AFFF731FFA22055
:100DA00000F0D0F802226946222000F0ADF8FFF7EB
:100DB0001FFF9DF800009DF80110C00040EA51108F
:100DC000B0F5806F01DBA0F5006000EE100AB4EE14
:100DD000001AF8EEC00AB3EE070A00EE810A84EDAD
:100DE000060A7CBD200000207C0D00207CB5002080
:100DF00000900190FFF704FF922000F0A3F8062274
:100E00006946122000F080F8FFF7F2FE9DF801001D
:100E10009DF80010000200B2084300EE100A384DA1
:100E2000384CF8EEC00A95ED040A60EE800AC4ED75
:100E3000000A9DF803009DF80210000200B208436A
:100E400000EE900AF8EEE00A60EE800AC4ED010AB6
:100E50009DF805009DF80410000200B2084300EE62
:100E6000900AF8EEE00A20EE800A84ED020AFFF70D
:100E7000D9FE08226946002000F046F8FFF7CAFEB6
:100E80009DF800000F282ED19DF803009DF8021058
:100E9000000200B2084300EE100AF8EEC00A95ED19
:100EA000050A60EE800AC4ED070A9DF805009DF86A
:100EB0000410000200B2084300EE900AF8EEE00AC7
:100EC00060EE800AC4ED080A9DF807009DF8061040
:100ED000000200B2084300EE900AF8EEE00A20EEAD
:100EE000800A84ED090AFFF78BFEA22000F02AF8A1
:100EF00002226946222000F007F8FFF779FE7CBD48
:100F0000200000207C0D002070B514460D4640F0F6
:100F1000800000F017F806E0552000F013F8641E7A
:100F200005F8010BE4B2002CF6D170BD10B50C46EB
:100F300040F0800000F006F8552000F003F8207023
:100F400010BD000001B582B04FF47A70009001230B
:100F500001AA02A9024801F0DDFF9DF804000EBDC0
:100F60007405002010B50C46FFF7ECFF2046BDE8E5
:100F70001040FFF7E7BF000010B59FED200B04F015
:100F80006BFE51EC100BFFF75DFB1E4C9FED1E1B23
:100F90009FED1F0B206105F083FC51EC100BFFF758
:100FA00051FB00EE100ADFED1C0A84ED050A20EE6D
:100FB000200AF1EE0C0A80EE201A9FED180A84ED4B
:100FC000141A84ED060A84ED070A84ED080A84EDFC
:100FD000090A84ED0A0A84ED0B0A84ED0C0A84EDFB
:100FE0000D0A84ED0E0A84ED0F0A84ED100A84EDDB
:100FF000110A84ED120A84ED130A10BD00000000EE
:101000000000F0BF54140020000000000000E03F8A
:10101000000000000000004000000442000000004A
:101020002DE9F04100242DED028BFFF727FE7649D4
:101030001020C861084601F0AFFE08F05DF903F02A
:1010400059FD724800F084F9714800F081F99FED74
:10105000711ADFED718A44F620679FED700AF0EE99
:10106000680A3B4647F2305203216D4803F032FDD7
:10107000B0EE681AF0EE680A9FED6A0A40F6B838DA
:101080007D10464643462A460421674803F022FD68
:101090009FED660A6248F0EE680AB0EE401A2B46F1
:1010A0003A460321683003F015FD5F48B0EE681A38
:1010B000F0EE680AB1EE040A33462A46042168308D
:1010C00003F008FD9FED5A1ADFED5A0A2B46B1EEE8
:1010D000040A1A460421584803F0FCFCB0EE681AD2
:1010E000F0EE680A9FED550A4FF480473B463246C2
:1010F0000321534803F0EEFC9FED528A4E482B46E5
:10110000F0EE480AB0EE080AB0EE601A1A46042162
:10111000683003F0DFFC4A48B0EE681AF0EE680A67
:10112000B3EE040A3B4632460321683003F0D2FC9A
:10113000454E00BF04EB840000EBC40006EBC0008A
:10114000B0EE681AF0EE480AB1EE040A2A462B46C1
:10115000042103F0BFFC641CE4B2042CEAD3042491
:1011600004EB8400F0EE480A00EBC40006EBC0007C
:10117000B0EE601AB0EE080A2A462B46042103F0AE
:10118000A9FC641CE4B2062CEAD3F0EE680A9FEDD9
:101190002F0AB0EE601A2B46424603212C4803F07A
:1011A00099FC4FF47A72B3EE041ADFED2A0AB3EE1B
:1011B0000E0A13460321284803F08CFC012227491C
:1011C000274802F063FE01222649274802F012FE5A
:1011D00016222649244802F0F7FE02F053FF03F0DE
:1011E00088FC07F0D3FB224841685420884702F06E
:1011F0005BFF204802F08FF8BDEC028BC820BDE8F1
:10120000F04100F055B8000074050020D002002025
:10121000F802002000401C460000000000C0DA4533
:10122000D40D002000001644A40E00200000FA4453
:10123000CDCC4C3ECDCC4C3F740F00200000204262
:1012400044100020CDCCCC3D141100200000704291
:10125000841300200AD7A33BEC13002018000020C1
:101260004C0900209A0000208C080020E414002083
:10127000EC000020CC07002010B505A004F0B2FC63
:1012800006A004F0AFFCBDE8104004A004F0AABC26
:101290000D0A204F4B200D0A00000000204F4B206C
:1012A0000D0A0000014803F021BC000014110020C9
:1012B00010B504460821064802F0B0FA204601F0B5
:1012C00025F9BDE810400821014802F0C9BA000024
:1012D000CC0600200821014802F0C2BACC0600204A
:1012E000FEE70000014800F002BC0000D002002030
:1012F000014800F0FCBB0000F80200200EB5002001
:101300008DF804008DF805000F480823808A010A33
:101310008DF806100C498DF8070028310888020A5C
:101320008DF808208DF80900888A40F2FF12010A22
:101330008DF80A108DF80B0001A8009000210348D9
:1013400000F098F80EBD0000340C0020D002002000
:1013500010B5044600681C4A00218AB0904202D1B0
:101360000591099105E0194A904202D10E2005909D
:1013700009900120CDE9061003910091019102919D
:10138000049108906946204600F0A0FA08B100F0E8
:101390001AF90221204600F023FA08B100F013F9EF
:1013A000204600F0D9FE08B100F00DF9694620464C
:1013B00000F08CFA204600F0CFFE0221204600F01B
:1013C0000FFA0AB010BD0000006400400068004041
:1013D0000EB5124808230088010A8DF804100F4941
:1013E0008DF80500503131F8500F020A8DF80620B3
:1013F0008DF80700888A40F2FF12010A8DF8081064
:101400008DF8090000208DF80A008DF80B0001A866
:1014100000900021024800F02DF80EBD340C002091
:10142000F80200200EB51148082301880A0A8DF839
:1014300004208DF80510818A0A0A8DF806208DF89F
:101440000710018D0A0A8DF808208DF80910808F89
:101450009A01010A8DF80A108DF80B0001A800907E
:101460000021034800F006F80EBD0000840C0020A7
:10147000D0020020F0B587B000240C9E0746254618
:1014800049B10420CDE90120CDE903538DF8145072
:101490004FF6FE7506E002950092F5E7641CA4B2D3
:1014A000AC420FD8384600F00CFB0028F6D00120E3
:1014B00001F02CF806AB32466946384600F0A2F936
:1014C000002800D0012007B0F0BD0000014800F066
:1014D00089BE00000C0B0020014800F083BE000014
:1014E0004C0A0020014800F07DBE0000AC0A00203C
:1014F000014800F077BE0000CC050020014800F054
:1015000071BE00008C090020014800F06BBE000095
:101510002C060020014800F065BE0000EC09002008
:1015200001681823CAB2103AB2FBF3F2054B6FF30D
:101530000901032A9B5CC36500D9091D8165084622
:1015400070470000C4B4000810B5014600208B6944
:101550008A6A4FF0C07453B1B3F5005F15D072B111
:10156000012A0CD0022A0AD0032A09D104E01AB1B8
:10157000012A06D0022A03D1C96AC90100D5012077
:1015800010BDC96AA142FAD010BD002AF7D0012AC5
:10159000F2D0022AF3D0032AF3D010BD30B504688C
:1015A000256825F480252560046863608368402BE6
:1015B000036803D099600068C26030BD9A6000681B
:1015C000C16030BD7047704778B50024009490F832
:1015D0003C20012A19D0012280F83C200A68072308
:1015E0000568092A13D9EE680A3A02EB42029340D1
:1015F0009E43EE600B788A680A3B03EB43039A40F4
:101600000368DD682A43DA6010E0022078BD2E69A5
:1016100002EB420293409E432E610B788A6803EBF3
:1016200043039A4003681D692A431A614A681F23CD
:10163000072A13D205686E6B521E02EB820293409A
:101640009E436E630A8893B20A79521E02EB8202AD
:1016500093400268556B2B43536327E005680D2ABE
:1016600012D22E6BD21F02EB820293409E432E6356
:101670000B790A88DB1F92B203EB83039A4003685D
:101680001D6B2A431A6311E0EE6A0D3A02EB8202E7
:1016900093409E43EE620B790A880D3B92B203EBB6
:1016A00083039A400368DD6A2A43DA621B4B0568AC
:1016B000194A9D420AD10D68122D07D1556825F4AB
:1016C00000055560556845F48005556005689D42E4
:1016D0001DD1134D0B68AB4201D0112B17D15368AC
:1016E00023F480035360536843F400035360096894
:1016F000A9420CD10B490C4A0968B1FBF2F101EB8C
:101700008101490000E0491E00910029FBD180F8C9
:101710003C40002078BD0000002301400020014033
:10172000120000101000002040420F0070B50400AD
:101730004FF0000503D0206C002610B107E0012017
:1017400070BD204600F01CF8666484F83C60206C94
:10175000C00610D4206C20F4885040F002002064B1
:101760002046FFF7B1F96664206C20F0020040F0DB
:101770000100206400E0012584F83C60284670BD2B
:1017800010B586B0044614216846FEF7D5FD114910
:10179000206888421CD110480021026842F48072FF
:1017A0000260006800F4807005900B4814380268ED
:1017B00042F001020260006800F001000590422042
:1017C00000900320CDE901016946044800F0B0FE15
:1017D00006B010BD00200140443802400000024025
:1017E00090F82020012A07D0022A05D0416A41F44E
:1017F0008021416201207047006842690A434261CA
:1018000000207047F0B590F820500468A468012DBE
:1018100005D0022D03D0416A41F4802153E014F039
:10182000406F01D1E5004BD5C4F30164022C03D90C
:10183000416A41F4000146E00125A5401D608D6824
:101840004FF4C0739DB1CE6835434E6845EAC60576
:10185000066803EB0417F5514FF4C275076805EBF2
:1018600004150E697E51097D012905D009E00E8815
:10187000CD6845EA4655EBE701684E5946F4807657
:101880004E511179D2F805504FF4C67641EA05253C
:10189000016806EB04168D511178D2F801204FF43F
:1018A000C47541EA0221026805EB04155151006834
:1018B00003EB0411425842F0010242500020F0BDF7
:1018C000416A41F4001141620120F0BD10B590F869
:1018D0002020012A07D0022A05D0416A41F4802144
:1018E0004162012010BD3B48D0F8002242F00102C5
:1018F000C0F80022D0F8002222F47C52C0F8002266
:10190000D0F800224B6A42EA0322C0F800220A7D86
:1019100002F01F0301229A40D0F81C329343C0F812
:101920001C32CB69B3B9D0F80C329343C0F80C32F7
:101930008C894B6864F31F434C6900EBC404C4F802
:1019400040320C890B6864F31F434C6900EBC404FC
:10195000C4F84432CB69012B16D1D0F80C321343B2
:10196000C0F80C320C884B6864F31F434C6900EBE1
:10197000C404C4F840320C89CB6864F31F434C693B
:1019800000EBC404C4F844328B69002BD0F8043255
:101990000ED01343C0F804320B69002BD0F8143278
:1019A00008D01343C0F81432096A012904D008E0B2
:1019B0009343EFE79343F5E7D0F81C121143C0F8C7
:1019C0001C12D0F8001221F00101C0F80012002012
:1019D00010BD000000640040704730B590F8204012
:1019E000012C05D0022C03D0416A41F480215DE036
:1019F0000468002955D02469A40754D04FF4D87442
:101A0000056804EB01142D5915F00405956005686F
:101A10002D594ED0ED08556005682C5904F002048C
:101A2000D4604FF4DA74056804EB01142D5905F005
:101A30000F05156105682D59C5F3072595610568E2
:101A40002C59240C54614FF4DC72046802EB01122F
:101A5000A4581C700468A458240A5C700468A45834
:101A6000240C9C700468A258120EDA704FF4DE72D7
:101A7000046802EB0112A4581C710468A458240ADB
:101A80005C710468A458240C9C710468A258120E5E
:101A9000DA71006881B1016941F020010161002023
:101AA00030BDE468A8E7416A41F4001141620120B9
:101AB00030BD6D0D1560AFE7C16841F02001C16018
:101AC000EDE70246002092F82010012901D00229FA
:101AD0000CD111688A68520100D501208A68120170
:101AE00000D5401C8968C90000D5401C70472DE90D
:101AF000F05F0546006800244669D0F804908768C6
:101B0000D0F80CB0D0F810A0D0F81880F10748D069
:101B1000F90714D001218160B80703D5284600F0E9
:101B200048FB0CE0780702D54FF4006407E0380763
:101B300002D54FF4805402E0284600F039FBF80546
:101B400016D529684FF480708860B80503D52846FB
:101B500000F031FB0CE0780502D544F4005407E0B6
:101B6000380502D544F4804402E0284600F022FB08
:101B7000F80316D529684FF480308860B80303D580
:101B8000284600F01AFB0CE0780302D544F4004428
:101B900007E0380302D544F4803402E0284600F020
:101BA0000BFB300707D55FEACB6004D5296810200E
:101BB00044F40074C86070074FF0080707D55FEA67
:101BC0000B7004D52868C760284600F099F9B00763
:101BD00006D52868C068800702D0284600F092F930
:101BE000700607D55FEACA6004D52968102044F45E
:101BF00080640861B00607D55FEA0A7004D52868DA
:101C00000761284600F0A4FAF00606D528680069A6
:101C1000800702D0284600F09CFAB00308D55FEA9E
:101C2000C96005D5296810204860284600F092FA5E
:101C3000F00307D55FEA097004D528684760284695
:101C400000F0BCFA300446D55FEA497040D5F00593
:101C500004D55FEAC87001D044F00104B00504D592
:101C60005FEA887001D544F00204700504D55FEA8C
:101C7000487001D544F00404300529D518F0700FE0
:101C800026D008F07000402815D006DC102809D0B6
:101C900020280AD0302816D10AE050280ED060281B
:101CA00011D10EE044F008040DE044F010040AE005
:101CB00044F0200407E044F0400404E044F08004D1
:101CC00001E044F480742868816921F07001816129
:101CD000296804204860002C05D0686A20436862A7
:101CE0002846FFF779FEBDE8F09F70B5040003D0E9
:101CF00094F8200010B104E0012070BD204600F0EF
:101D000081F82068016821F00201016000F006FD01
:101D10000546052604E000F001FD401B0A2811D805
:101D2000206840688007F6D42068016841F001010E
:101D3000016000F0F3FC05460BE000F0EFFC401BF7
:101D40000A2806D9606A40F40030606284F8206096
:101D5000D2E720684068C007EFD0207E01282068C5
:101D600001683DD021F080010160607E012820687B
:101D7000016838D021F040010160A07E0128206870
:101D8000016833D021F020010160E07E0128206845
:101D900001682ED041F010010160207F01282068E9
:101DA000016829D021F008010160607F01282068C6
:101DB000016824D021F004010160D4E90201084344
:101DC000D4E90412114308436168491E084321689D
:101DD000C86100206062012084F82000002070BDEE
:101DE00041F08001C0E741F04001C5E741F020012A
:101DF000CAE721F01001CFE741F00801D4E741F034
:101E00000401D9E7F0B587B0044614216846FEF70F
:101E100093FA364B3648DFF8D0E01968D4F800C0A2
:101E2000334A03250226092710300024491CF445B3
:101E300022D11960012907D1016841F000710160C8
:101E4000006800F000700590106840F00800106015
:101E50001068CDE9005600F00800CDE9047069462D
:101E60002448CDE9024500F063FB0022052114203F
:101E700000F0C6FC142032E0DFF87CE0F44530D1FD
:101E8000D0F800C04CF0806CC0F800C0D0F800C0A2
:101E900001290CF0806CCDF814C0196007D10168DD
:101EA00041F000710160006800F00070059010685A
:101EB00040F002001060106802AB00F002000590D4
:101EC0006020CDE9000683E8B00069460B4800F0C9
:101ED0002FFB00220521402000F092FC402000F062
:101EE00081FC07B0F0BD000000640040000000204D
:101EF00030380240000C02400068004000040240FC
:101F0000704700002DE9F04F0746DFF82C9200687B
:101F10008849FF250026894C89B0A9F1280AA9F132
:101F200050084FF4FA7B88427DD107AB6A46002106
:101F30008348FFF752FD002878D10098A0F20120D5
:101F400003281ED82188C0B2491C21809DF81D108D
:101F50009DF81C2001EB022100EB800209EB8200BE
:101F600041809DF81F109DF81E2001EB0221818108
:101F70009DF821109DF8202001EB0221C1810674FB
:101F80004CE00098A0F50071113907D00A3159D002
:101F9000B0F5027F56D0491C2DD03FE0BDF81C00A3
:101FA00000EE100AF8EE400A9FED660A624880EEE5
:101FB000801A783080ED001ABDF81E1000EE901ADD
:101FC000F8EE600A80EE801A80ED011ABDF820104C
:101FD00000EE901AF8EE600A80EE801A80ED021A88
:101FE000BDF8221000EE901AF8EE600A80EE801A1A
:101FF00080ED031A12E0BDF81C0041BAA8F81610D3
:10200000BDF81E1049BAA8F82010BDF8201049BA32
:10201000A8F822109DF8221088F82410208858452E
:1020200004D1268000E001E002F046F84649386815
:1020300088426CD107AB6A4600214448FFF7CDFCCB
:1020400000B364E02088401C208000989DF81C109C
:10205000C01FC5B29DF81D0005EB850200EB0121F4
:102060000AEB820041809DF81F109DF81E2001EBB5
:10207000022181819DF821109DF8202001EB022191
:10208000C181CBE70098A0F50071053916D16088B1
:10209000401C6080BDF81C00032541BAA8F802105E
:1020A000BDF81E1049BAA8F80C10BDF8201049BAA6
:1020B000A8F80E109DF8221088F810100098A0F2D1
:1020C000062002281FD22088401C208000989DF8FE
:1020D0001D109DF81C20801EC0B201EB022100EBF8
:1020E000800209EB820041809DF81F109DF81E20A0
:1020F00001EB022181819DF821109DF8202001EB48
:102100000221C18106746088584500D16680012D86
:1021100000D02DB905EB85010AEB810006F072FCB9
:10212000032D03D104483C3806F0BAFC09B0BDE8E1
:10213000F08F000000640040840C00201A00002092
:10214000D00200200000C84200680040F8020020D1
:10215000704770477047000070B5044690F8200043
:10216000012804D0606A40F40020606218E0022078
:1021700084F820002068016821F00101016000F06E
:10218000CDFA05460EE000BF00F0C8FA401B0A2851
:1021900008D9606A40F400306062052084F82000AD
:1021A000012070BD20684068C007EDD1606270BD3D
:1021B000704770477047704770477047704790F896
:1021C0003510022903D08021416501207047052187
:1021D00080F835100068016821F0010101600020DD
:1021E000704700002DE9F84304464FF00009CDF890
:1021F000009063484FF41651A56D0068B0FBF1F7ED
:102200002E6894F85C10082000FA01F131420FD0DA
:1022100021680A6852070BD50A6822F004020A6096
:1022200094F85C108840A860606D40F00100606523
:1022300094F85C104FF0010808FA01F0304208D021
:1022400021684969090604D5A860606D40F0020064
:10225000606594F85C1004208840304208D0216802
:102260000968890704D5A860606D40F004006065C6
:1022700094F85C1010208840304218D0216809681A
:10228000090714D5A86020680168490304D50068CF
:10229000000308D5A16C07E00168C90503D40168F3
:1022A00021F008010160216C09B12046884794F8AB
:1022B0005C1020208840304231D021680968C9066E
:1022C0002DD5A86094F8350005282068016806D04F
:1022D000490347D5006800031DD4616C1CE021F060
:1022E000160101602068416921F080014161206C84
:1022F00008B9A06C20B12068016821F008010160D4
:1023000094F85C103F208840A86084F8349084F8EA
:102310003580216D1FE0E16B09B120468847606D73
:1023200000282BD0606DC00714D0052084F835003C
:102330002068016821F0010101600098401C0090B4
:10234000B84203D820680068C007F6D184F83490FA
:1023500084F83580E16C002910D001B02046BDE83A
:10236000F04308470168C905D5D4016821F0100180
:10237000016084F8349084F83580CCE7BDE8F883B8
:10238000100000202DE9F041044600F0C7F9064690
:102390005CB1002584F83450022084F835002068B0
:1023A000016821F0010101600DE00120BDE8F0812C
:1023B00000F0B4F9801B052805D9202060650320B2
:1023C00084F83500F2E720680068C007F0D1226881
:1023D000116820480140D4E901031843D4E90336C9
:1023E0003343184363691843A3691843E3691843E7
:1023F000236A18430843616A042903D1D4E90B1303
:1024000019430843106020684069666A20F007019C
:1024100030460E43012704280CD1A06A0643E06A27
:1024200040B12046FFF790F820B14020606584F865
:102430003570BAE7206846612046FFF771F894F8D6
:102440005C203F2191408160656584F835700020F3
:10245000ACE700003F8010F070B5044690F83400FF
:10246000002501280CD0012084F8340094F8356050
:102470000020012E06D084F834000225284670BDC5
:10248000022070BD022684F8356060652046FFF7A3
:1024900085F82068016841F001010160EEE72DE94F
:1024A000F0410446866D90F83400002501280DD0D7
:1024B000012084F8340094F835700020012F07D0F3
:1024C00084F8340002252846BDE8F0810220FBE7AD
:1024D000022784F8357060652046FFF75FF894F8AE
:1024E0005C103F208840B0602068016841F0160110
:1024F0000160206C20B12068016841F00801016092
:102500002068016841F001010160DCE770B5044614
:1025100000F004F90546601C02D004480078044429
:1025200000F0FCF8401BA042FAD370BD140200205A
:102530002DE9F84F00224FF0010803254FF00F0E50
:102540000B6808FA02F42340A3426ED14E68012EB4
:1025500005D0022E03D0112E01D0122E12D1866882
:102560004FEA420C05FA0CF7BE43CF6807FA0CF7A6
:10257000374387604668A6430C79C4F3001494403F
:1025800034434460C668570005FA07FC8C6826EAA5
:102590000C06BC403443C4604C68022C01D0122CA1
:1025A00013D1D40800EB8404A346D4F82090540738
:1025B0004FEAD46A0EFA0AF629EA06090E6906FA03
:1025C0000AF646EA0906CBF8206004680E7924EA88
:1025D0000C0406F00306BE40264306604C68E40087
:1025E0006FD53B4C266846F480462660246822F06E
:1025F000030604F480440094364C3444A446D4F8D2
:1026000008489607360F0EFA06F7BC43324FB84219
:1026100001D100272EE0314FB84201D1012729E036
:102620002F4FB84202D1022724E04AE02D4FB84292
:1026300001D103271EE02C4FB84201D1042719E035
:102640002A4FB84201D1052714E0294FB84201D1E1
:1026500006270FE0274FB84201D107270AE0264F8F
:10266000B84201D1082705E0244FB84201D109271B
:1026700000E00A27B7402743CCF80878204E34689A
:102680004F689C43FF0300D51C4334601C4E361D2D
:1026900034684F689C43BF0300D51C433460184E18
:1026A000083634684F689C43FF0200D51C433460F1
:1026B000134E0C3634684F689C43BF0200D51C4350
:1026C0003460521C102AFFF43BAFBDE8F88F0000C5
:1026D0004438024000300140000002400004024043
:1026E00000080240000C02400010024000140240AA
:1026F00000180240001C024000200240002402405A
:10270000003C0140426931EA020200D109048161C2
:1027100070470AB1816170470904FBE7014880688E
:1027200070470000140200200248816802781144BA
:1027300081607047140200200B4810B5016841F415
:1027400000710160016841F480610160016841F439
:1027500080710160032000F073F80F2000F006F88C
:1027600000F024F8002010BD003C024070B50D4D73
:1027700004464FF47A712878B1FBF0F00A490968F1
:10278000B1FBF0F000F0B7FC48B9102C07D20022E2
:102790002146501E00F034F800206C6070BD01200E
:1027A00070BD000014020020100000200C4882B010
:1027B000016841F480410160006800F480400090AD
:1027C0000748001F016841F0805101600068002245
:1027D00000F0805000900F21901E02B000F010B861
:1027E00044380240002809DB00F01F02012191401B
:1027F0004009800000F1E020C0F80011704700009F
:10280000F0B40E4B1B680C46C3F30223C3F107055B
:10281000042D00D90425191D072901D2002300E049
:10282000DB1E012606FA05F1491E214099409E4013
:10283000761E16403143F0BC03F0FCB90CED00E00D
:10284000064900F0070208684FF6FF03184040EA07
:102850000220034A10430860704700000CED00E0BE
:102860000000FA052DE9F0470E46050065D0DFF8B7
:102870001481D8F80000F7B200F00F00B04207D280
:1028800088F80070D8F8000000F00F00B04254D172
:1028900028683D4C810712D5400703D5206840F4D5
:1028A000E05020602878000703D5206840F460409D
:1028B00020602068A96820F0F00008432060287894
:1028C000C0072DD0304968680839012812D0022885
:1028D00013D0032811D00968890700292DDA21684F
:1028E00021F0030101432160FFF718FF814641F207
:1028F000883A0EE009688903EFE709688901ECE787
:10290000FFF70CFFA0EB0901514502D90320BDE8F8
:10291000F0872068696800F00C00B0EB810FEFD100
:10292000D8F80010404601F00F01B14207D90770F6
:10293000006800F00F00B04201D00120E7E72878DE
:10294000400705D52068E96820F4E050084320607E
:102950002878000706D52068296920F4604040EAFD
:10296000C100206000F038F82168084AC1F3031163
:10297000515CC8400649086006480068FFF7F6FE4B
:102980000020C4E7003C024008380240ACB1000817
:10299000100000201802002004480549006809685A
:1029A000044AC1F38221515CC840704710000020E6
:1029B00008380240BCB100080448054900680968AD
:1029C000044AC1F34231515CC840704710000020F6
:1029D00008380240BCB10008154810B5006810F076
:1029E0000C02144813D01449042A0FD0082A0ED11F
:1029F0000F4C241F2268236802F03F025B0207D5B8
:102A00002068C0F38810A0FB010106E0084610BD55
:102A10002168C1F38811A1FB00010023FDF742FCEE
:102A20002168C1F30141491C4900B0FBF1F010BD20
:102A3000083802400024F400001BB7002DE9F84FCD
:102A400004006ED02078DFF83C93C007A9F104059C
:102A50004AD009F104000168C1F38101012908D0BD
:102A60000068C0F3810002280AD1D9F800004002B2
:102A700006D52868800337D560680028E1D033E0A8
:102A80006068B0F5803F10D0B0F5A02F286810D056
:102A900020F480302860286820F480202860606856
:102AA000A8B1FFF73BFE06460DE0286840F48030F1
:102AB000F4E740F480202860F7E700BFFFF72EFE20
:102AC000801B642873D828688003F7D50CE0FFF7D3
:102AD00025FE064605E000BFFFF720FE801B6428A8
:102AE000F0D828688003F7D42078DFF89C8280072C
:102AF0004FF0000A3ED5A348001D016811F00C0FED
:102B000008D00068C0F3810002280BD1D9F800007A
:102B1000400207D42868800716D5E068012800D154
:102B200012E02BE1E068B8B10120C8F80000FFF71F
:102B3000F5FD064605E000BFFFF7F0FD801B02280B
:102B4000C0D828688007F7D52868216920F0F800E8
:102B500040EAC10028600DE0C8F800A0FFF7DEFDE4
:102B6000064604E0FFF7DAFD801B02281FD828681C
:102B70008007F7D42078000722D5824E8348616908
:102B8000703671B101210160FFF7C8FD074604E00E
:102B9000FFF7C4FDC01B022809D830688007F7D5AD
:102BA0000EE0C0F800A0FFF7B9FD074605E082E09F
:102BB000FFF7B4FDC01B02287DD830688007F7D42A
:102BC0002078400768D5DFF8BCB100270BF13C0B3B
:102BD000DBF80000C0000BD4DBF8001041F080519E
:102BE000CBF80010DBF80000012700F080500090C7
:102BF000674E3068C00510D4306840F48070306093
:102C0000FFF78CFD009005E0FFF788FD0099401A62
:102C1000022850D83068C005F6D55A4EA0686C36E8
:102C200001280FD00528306810D020F00100306056
:102C3000306820F004003060A068B8B1FFF76EFD86
:102C400000900FE0306840F00100F4E740F004002D
:102C50003060F7E7FFF762FD0099411A41F28830D2
:102C6000814266D830688007F4D50EE0FFF756FD44
:102C7000009007E0FFF752FD0099411A41F28830B9
:102C8000814256D830688007F4D42FB1DBF80010A9
:102C900021F08051CBF80010A069C8B33949091D53
:102CA0000968C1F3810102294AD00228504607D0A1
:102CB000C8F8600000E03CE0FFF730FD04463BE070
:102CC0004746C8F86000FFF729FD064605E000BF4B
:102CD000FFF724FD801B02282BD828688001F7D439
:102CE000D4E907010843A16A2A4A490802EB0141D5
:102CF000626A41EA8211084394F82C1040EA0161AB
:102D0000C9F8001001203866FFF708FD044606E008
:102D100036E000BFFFF702FD001B022809D8286833
:102D20008001F7D52CE000BFFFF7F8FC001B02285C
:102D300002D90320BDE8F88F28688001F4D41FE091
:102D40000128F7D0D9F80000E26900F4800191422F
:102D500014D1226A00F03F0191420FD147F6C071B1
:102D6000626A0140914209D1A26A00F44031914265
:102D700004D1E16A00F07060884201D00120D9E7F7
:102D80000020D7E70438024000004742800E474247
:102D9000007000400000FFFF70B5040005D0002562
:102DA000A56294F8510010B106E0012070BD84F8CE
:102DB0005050204600F030F8022084F8510020687E
:102DC000016821F040010160D4E901010843D4E920
:102DD00003121143084361690843218B01F4007118
:102DE0000843E1690843216A0843A16A084321684E
:102DF0000860A069042101EA1040616A0843216863
:102E000048602068C16921F40061C16165650120E5
:102E100084F85100002070BD2DE9F04186B00646CF
:102E200014216846FDF788FA34493068884262D137
:102E300033480024016841F480510160006800F4C7
:102E4000805005902E481438016841F0020101605D
:102E5000016801F002010591016841F00101016082
:102E60000068022500F0010005901820CDE900055A
:102E700002AA03274FF0050882E89001694621481D
:102E8000FFF756FB8020CDE9000502AA694682E8DB
:102E900090011D48FFF74CFB1D4D1C487F06286024
:102EA000C5E901744FF48068C5E903486C61AC6101
:102EB000EC612C6228466C62FFF764FA08B1FEF7F9
:102EC00082FBF564AE63124D104860354830E5E88A
:102ED00002074020A5E811010D4845F8144960306B
:102EE000AC61EC612C626C62FFF74CFA08B1FEF742
:102EF0006AFBB564AE6306B0BDE8F0810030014006
:102F000044380240000402400000024010640240C5
:102F1000CC0500202DE9F84F044690F8500000271A
:102F20000A9E1D4692468B464FF0010901280ED09D
:102F3000012084F85000FFF7F1FB804694F851001F
:102F4000616801280CD0B1F5827F07D102E0022030
:102F5000BDE8F88FA16809B9042801D00227C2E0B2
:102F6000BBF1000F27D0BAF1000F24D01DB394F8A5
:102F70005100042802D0052084F85100002060652B
:102F8000C4F838A0E587A587C4F830B0E586A586E3
:102F90002064606420680168490603D4016841F038
:102FA00040010160E068B0F5006F606805D0E8B3EB
:102FB000012D46D07FE0012795E008B1012D39D1E0
:102FC000206B21680088C860206B801C2063E08E25
:102FD000401EE0862EE02068816889070FD5E18ECB
:102FE00069B1B9F1010F0AD1216B0988C160206B69
:102FF000801C2063E08E401EE0864FF000092068B0
:103000008168C9070CD0E18F51B1C068A16B0880FD
:10301000A06B801CA063E08F401EE0874FF0010989
:10302000FFF77CFBA0EB0800B04200E009E001D311
:10303000701C50D1E08E0028CDD1E08F0028CAD17D
:103040003FE0206B216800780873206B401C2063F0
:10305000E08E401EE0862EE02068816889070FD54B
:10306000E18E69B1B9F1010F0AD1216B09780173C1
:10307000206B401C2063E08E401EE0864FF000096C
:1030800020688168C9070CD0E18F51B1C068A16B7D
:103090000870A06B401CA063E08F401EE0874FF0DB
:1030A0000109FFF73BFBA0EB0800B04202D3701C04
:1030B00001D010E07EB1E08E0028CDD1E08F002855
:1030C000CAD142463146204601F072FF28B101279D
:1030D0002020606507E0032705E0A06818B9206894
:1030E000C16880680090012084F85100002084F8B5
:1030F000500038462CE710B5401EB0F1807F01D358
:10310000012010BD4FF0E02460610F21601702F034
:1031100091FD0020A06107202061002010BD7047B4
:10312000704710B590F83C20012A22D0012280F887
:103130003C20CA688C6822F4407222434C6822F416
:10314000806222430C6822F4006222430C6922F45C
:10315000805222434C6922F400522243C969002361
:1031600022F480420A4301684A6480F83C3000201F
:1031700010BD022010BD000070B590F83C20012A5F
:1031800032D0012480F83C40022280F83D200368C0
:103190005A689D6822F070060A6832435A60134BE1
:1031A00002689A4214D0B2F1804F11D0104B9A426B
:1031B0000ED0104B9A420BD00F4B9A4208D00F4BB7
:1031C0009A4205D00E4B9A4202D00E4B9A4204D13D
:1031D000496825F080031943916080F83D40002143
:1031E00080F83C10084670BD022070BD0000014010
:1031F0000004004000080040000C004000040140B2
:10320000004001400018004010B5040003D094F8BD
:103210003D0010B107E0012010BD002084F83C0003
:10322000204600F00DF8022084F83D00211D2068A2
:1032300002F028F8012084F83D00002010BD0000B5
:1032400008B5264A01682648914207D1016841F035
:1032500004010160006800F0040009E0214A914285
:1032600008D1016841F008010160006800F0080021
:10327000009008BD1C4A91420ED1016841F0100136
:1032800001600068002200F0100000900521362047
:10329000FFF7B6FA36201DE01148144A001D91428E
:1032A00007D1016841F400310160006800F400308A
:1032B000DEE70F4A9142DCD1016841F480210160D0
:1032C0000068002200F48020009005211A20FFF7FA
:1032D00097FA1A20BDE80840FFF784BA00080040BA
:1032E00040380240000C0040001000400044014003
:1032F000004801400168CA6842F00102CA600068E3
:10330000816801F00701062903D0016841F001013D
:103310000160002070470168CA6822F00102CA609B
:103320000068016A41F21112114207D1016A92103C
:10333000114203D1016821F00101016000207047B2
:1033400070B5044690F83C00012817D0012584F898
:103350003C50022084F83D002068826822F0770209
:1033600022F47F4282600868502830D00DDC20288B
:103370004DD005DC98B310283BD148E0022070BD49
:10338000302844D0402834D139E0602828D0702833
:1033900006D0B0F5805F2CD0B0F5005F29D10AE0EF
:1033A000CB68D1E90121206801F0DDFF2068816848
:1033B00041F0770109E0CB68D1E90121206801F0F3
:1033C000D2FF2068816841F48041816011E0CA68C1
:1033D0004968206802F09CF85021206807E016E058
:1033E000CA684968206802F0A4F86021206801F0EA
:1033F000C4FF84F83D50002084F83C0070BDCA68CA
:103400004968206802F084F840212068EFE72268CC
:1034100001461046EBE7704770B504460068016945
:103420004FF00005C943890715D4C168C94389070E
:1034300011D4E91E0161012020772068806980078E
:10344000204602D0FFF7E7FF04E000F035F9204600
:1034500000F0E2F9257720680169C943490717D4CC
:10346000C168C943490713D46FF004010161022008
:1034700020772068806910F4407F204602D0FFF753
:10348000CAFF04E000F018F9204600F0C5F92577DE
:1034900020680169C943090716D4C168C9430907EF
:1034A00012D46FF008010161042020772068C06900
:1034B0008007204602D0FFF7AEFF04E000F0FCF8E2
:1034C000204600F0A9F9257720680169C943C9069B
:1034D00017D4C168C943C90613D46FF01001016144
:1034E000082020772068C06910F4407F204602D071
:1034F000FFF791FF04E000F0DFF8204600F08CF9C0
:10350000257720680169C943C90708D1C168C94343
:10351000C90704D1891E0161204600F0CFF9206857
:103520000169C943090609D4C168C943090605D41C
:103530006FF0800101612046FFF7F1FD206801690D
:10354000C943490609D4C168C943490605D46FF087
:1035500040010161204600F0C5F920680169C943B6
:1035600089060BD4C168C943890607D46FF02001CE
:1035700001612046BDE87040FFF7D2BD70BD00007C
:10358000F0B587B0044614216846FCF7D5FE3F48E5
:10359000226800243E4902250126824223D1086880
:1035A00040F001000860086800F00100059008681C
:1035B00040F0100008600868694600F010000590AF
:1035C0004FF450600090CDE90154CDE903463148F5
:1035D000FEF7AEFFA8020090CDE90154CDE9034605
:1035E00069462D4811E02D48824212D1086840F00A
:1035F000080008600868694600F00800059010148B
:103600000090CDE90154264815E0FEF791FF07B080
:10361000F0BD244B24489A4210D10A6842F080023F
:103620000A60096801F0800105914FF44061009142
:10363000CDE901546946CDE90345E6E71B4F402338
:10364000BA420FD1086840F0200008600868694657
:1036500000F0200005908DE868000320CDE90350BC
:103660001348D2E7134EB242D1D10A6842F0800229
:103670000A600968009301F080010591CDE90154C9
:103680000921CDE903416946BFE700000000014080
:1036900030380240000002400010024000080040A4
:1036A000000C0240000C0040001C0240004401409D
:1036B0000014024000180040704770B5044690F8AE
:1036C0003C000D4601280DD0012684F83C60022004
:1036D00084F83D0042B1042A18D0082A2AD00C2AC6
:1036E0004DD139E0022070BD206801F04FFE206806
:1036F000816941F0080181612068816921F004013C
:103700008161206881692A69114311E0206801F014
:103710006DFE2068816941F40061816120688169E2
:1037200021F480618161206881692A6941EA02216E
:10373000816124E0206801F08FFE2068C16941F0BA
:103740000801C1612068C16921F00401C1612068DC
:10375000C1692A69114311E0206801F0B1FE2068B7
:10376000C16941F40061C1612068C16921F48061CF
:10377000C1612068C1692A6941EA0221C16184F8F6
:103780003D60002084F83C0070BD10B5040003D0FB
:1037900094F83D0010B107E0012010BD002084F82E
:1037A0003C00204600F00CF8022084F83D00211D6A
:1037B000206801F067FD012084F83D00002010BD65
:1037C00008B500681149884212D11148016841F0DA
:1037D000010101600068002200F001000090052155
:1037E0001A20FFF70DF8BDE808401A20FEF7FABFCF
:1037F0000849884209D10648001F016841F040018C
:103800000160006800F04000009008BD0000014029
:1038100044380240001800407047000010B50446CC
:103820000068012201F092FD0B492068884202D015
:103830000A49884203D1416C41F400414164206847
:10384000816801F00701062903D0016841F00101F8
:103850000160002010BD0000000001400004014094
:1038600010B504460068002201F070FD114841F2D5
:10387000111221689310814202D00F48814209D170
:10388000086A104206D1086A184203D1486C20F435
:10389000004048642068016A114206D1016A194259
:1038A00003D1016821F001010160012084F83D008D
:1038B000002010BD000001400004014007490068DD
:1038C0000968884209D106484FF4FA520188491C18
:1038D00089B20180914200D302807047CC0700205A
:1038E00014000020704701680A680A68D243D207B2
:1038F00003D14A686FF001020A6001680A68D24386
:10390000920703D44A686FF002020A6001680A68ED
:10391000D243520703D44A686FF004020A60006879
:103920000168C943090703D4C1686FF00801016049
:10393000704710F8391F40780843704770B5026827
:1039400004461068D168536910F00F0F53D003F08C
:10395000010501F490762E435FD0C20705D0CA0559
:1039600003D5E26B42F00102E263420705D5DA07B4
:1039700003D0E26B42F00202E263820705D5DA0768
:1039800003D0E26B42F00402E263020707D501F0C4
:1039900020022A4303D0E26B42F00802E263E26BAA
:1039A000002A34D0800604D5880602D5204601F0CE
:1039B00080FE20684069E16BC0F3801001F00801CF
:1039C0000143204624D001F05DFE2068416949068C
:1039D0001AD5416921F040014161606BA0B11B49DA
:1039E0000165606BFEF7EBFB002810D0606B016D8A
:1039F000BDE87040084783060FD58B060DD52046DD
:103A0000BDE8704001F055BE2046FFF76CFF70BD69
:103A1000FFF769FF0020E06370BD030606D50B06C3
:103A200004D52046BDE8704001F022BF4006F3D522
:103A30004806F1D5D168204621F04001D16020210F
:103A400084F8391000F000FB70BD0000AD5500088F
:103A500070B5040004D094F83900002510B106E0D8
:103A6000012070BD84F83850204600F023F824204F
:103A700084F839002068C16821F40051C1602046F3
:103A800001F062FE2068016921F490410161206823
:103A9000416921F02A0141612068C16841F4005167
:103AA000C160E563202084F8390084F83A000020E2
:103AB00070BD00002DE9F04F87B004461421684620
:103AC000FCF73AFCBC48BB4ED4F800C0BA4B1038E7
:103AD0000221032200254FF0080BB4451DD11C68BC
:103AE00044F080441C601B6803F080430593036826
:103AF00043F010030360006802AC00F01000059072
:103B0000D001CDE90001012084E805086946AB48F1
:103B1000FEF70EFD07B0BDE8F08FDFF8A482DFF8F6
:103B200098A24FF0006677140AF1040A4FF00709D3
:103B3000C4456FD1DAF800C04CF0100CCAF800C0D0
:103B4000DAF8003003F010030593036843F0020332
:103B50000360036803F002030593036843F0010365
:103B6000036000688A4600F0010005908020CDE9DE
:103B7000000A02AB904683E8200369469148FEF7AD
:103B8000D7FCB014CDE9000A02AB694683E82003F4
:103B90008D48FEF7CDFCDFF838828C494046C8F8E6
:103BA0000010C0E90165C0E903574FF4803AC8F836
:103BB00020A08915C8F81450C8E90651B946C8F8BC
:103BC0002450FEF7DFFB08B1FDF7FDFC804F7F4876
:103BD000C4F8348060377830C8F83840E7E8020627
:103BE0004020A7E821027A4847F814596030BD61A7
:103BF000C7E9075A7D62FEF7C5FB08B1FDF7E3FC94
:103C00002763002205212520BC63FEF7F9FD25204E
:103C100060E0FFE7DFF8BC81C4455ED1D3F800C0A7
:103C2000AA464CF4003CC3F800C01B6803F4003300
:103C30000593036843F008030360006800F0080080
:103C4000059060208DE82300CDE90329694662488C
:103C5000FEF76EFCDFF87881604908F1C008404645
:103C6000C8F80010C0E90165C0E90357C8F814504E
:103C7000C8F81850C8F81C50C8F82050C8F824508C
:103C8000FEF780FB08B1FDF79EFC5448544DC4F884
:103C900034801830C8F83840C5E900064020A860D4
:103CA000C5E903A7C5F814A0C5F818A0C5F81CA05D
:103CB000C5F820A02846C5F824A0FEF763FB08B18C
:103CC000FDF781FC2563002205212620AC63FEF769
:103CD00097FD2620FEF786FD1CE7DFF80881C44526
:103CE00041D1D3F800C04CF4802CC3F800C01B684D
:103CF00003F480230593036843F004030360006822
:103D000000F0040005904FF440608DE82300CDE9F9
:103D1000032969463448FEF70BFCDFF8C4802F49BD
:103D200008F1600860394046C8F80010C0E9016534
:103D3000C0E903578915C8F81450C0E90651C8F8FE
:103D40002050C8F82450FEF71DFB08B1FDF73BFCDE
:103D5000C4F83480002205212720C8F83840FEF737
:103D60004FFD2720B6E7214B9C45B5D1DAF800403E
:103D700044F02004CAF80040DAF8003003F02003D1
:103D80000593036843F040030360006800F04000BF
:103D900005904FF484408DE82300CDE9032B69465C
:103DA0001348FEF7C5FB002205214720FEF728FD3A
:103DB00047208FE700780040403802400010024062
:103DC0000010014000040240000002404064024034
:103DD0008C09002000440040000C02408860024032
:103DE000AC0A0020004800400008024000140140D6
:103DF00000180240F8B5044690F83A0020283CD15B
:103E0000C1B3BAB394F83800012836D0012084F841
:103E10003800A162A2850025E563222084F83A00DB
:103E2000636B1748D863636B16481864636B164856
:103E3000D864606B134605650846666B21680246C8
:103E40003046091DFEF72BFB206801684168009190
:103E500084F83850C16841F48071C16020684169BC
:103E600041F0010141612068416941F04001416137
:103E70000020F8BDFFE70120FBE70220F9E7000082
:103E80000756000843560008BD55000890F83A3020
:103E9000202B22D1F9B1F2B190F83830012B1CD08F
:103EA00081628285C2850021C163222280F83A2086
:103EB00080F838100168CA6842F48072CA600168EC
:103EC0004A6942F001024A610068C16841F020017C
:103ED000C160002070470120704702207047000039
:103EE00010B504460748844201D101F055FD06484B
:103EF000844201D105F0ECF82046BDE81040FFF700
:103F0000F2BC00008C0800204C08002070472DE90E
:103F1000F843044690F839001F4616460D462028FF
:103F200050D1B5B1AEB194F8380001284AD0012083
:103F300084F838004FF00008C4F83C80212084F851
:103F40003900FEF7EBFBA6848146E68484F83880CE
:103F500026E00120BDE8F883E08C401EE084A068E4
:103F60004B46B0F5805F4FF000024FF080012046D5
:103F7000009703D001F0ADFCE8B90DE001F0A9FC19
:103F8000C8B928882168C0F308004860206908B1D2
:103F90006D1C05E0AD1C03E0216815F8010B4860BD
:103FA000E08C0028D8D14B460022402120460097C3
:103FB00001F08FFC08B10320CCE7202084F8390001
:103FC0000020C7E70220C5E770B5044690F8390025
:103FD000202830D169B362B394F8380001282AD080
:103FE000012084F838002162A284E2840025E56380
:103FF000212084F83900236B1048D863236B1048C4
:104000001864236B0F48D864206B13460565266837
:10401000206B321DFEF743FA21686FF04000086004
:1040200084F838502068416941F0800141610020E6
:1040300070BD012070BD022070BD00004D5600080B
:104040007B560008BD55000870477047FEE700002A
:1040500010B505F019F904F05FFD04F069FF074899
:10406000DFED070A90ED0F0A20EE200A80ED0F0A1F
:10407000BDE810400020FEF749BA00003C0D0020CA
:1040800000007A4410B5012205490648FFF7B2FE48
:10409000002803D0BDE81040FDF795BA10BD000020
:1040A000E40100204C080020012251030148FEF7E2
:1040B00030BB0000001802404FF480510148FEF769
:1040C00021BB0000001C02407FB50024154800946D
:1040D000019402941249039401604FF48031C0E9C5
:1040E00001140461047680F820400F49C0E90A14E5
:1040F0000125C561C46080F830404561FDF716FBBD
:1041000008B1FDF760FA0620CDE900056946029482
:104110000448FDF759FA002801D0FDF754FA7FBD95
:1041200000200140880200200100000F104810B557
:104130000E4901600321416000214FF4102281608B
:10414000C0E903124FF40012426101760122427667
:104150008176C17601774177FDF7C7FD002803D04E
:10416000BDE81040FDF72FBA10BD0000006400400C
:10417000D00200200F4810B50D49016003214160B5
:1041800000214FF410228160C0E903124FF40012A5
:104190004261017641768176C17601774177FDF7FC
:1041A000A4FD002803D0BDE81040FDF70CBA10BDF7
:1041B00000680040F8020020254808B5016841F475
:1041C00000110160016801F400110091016841F4DF
:1041D000800101600068002200F480000090052149
:1041E0000C20FEF70DFB0C20FEF7FCFA0022052147
:1041F0001020FEF705FB1020FEF7F4FA002205213F
:104200001120FEF7FDFA1120FEF7ECFA002205213D
:104210003820FEF7F5FA3820FEF7E4FA00220521EF
:104220003A20FEF7EDFA3A20FEF7DCFA00220521EB
:104230003B20FEF7E5FA3B20FEF7D4FA00220521E9
:104240004620FEF7DDFABDE808404620FEF7CABA70
:104250003038024010B596B01C2211496846FCF770
:1042600052F80021684605F00CF90E4C0C491C224E
:1042700020601C3107A8FCF746F8002107A805F0CC
:1042800000F9074960601C2238310EA8FCF73BF8A2
:1042900000210EA805F0F5F8A06016B010BD0000D2
:1042A00058B10008040000202DE9F04F87B0142118
:1042B0006846FCF741F857480025016841F00201C3
:1042C0000160016801F002010591016841F04001BF
:1042D0000160016801F040010591016841F00101B0
:1042E0000160016801F001010591016841F00801D8
:1042F0000160016801F008010591016841F00401C5
:104300000160016801F004010591016841F080013C
:104310000160016801F080010591016841F0200110
:104320000160016801F020010591016841F0100170
:1043300001600068DFF8E09000F010004FF40054D6
:104340000590002221464846FEF7E3F94FF4C06687
:10435000002231463148FEF7DCF9DFF8C4A041F213
:104360003C07002239465046FEF7D3F9DFF8B4B0D7
:10437000012210215846FEF7CCF9012211462748A8
:10438000FEF7C7F94FF48048002241462648FEF761
:10439000C0F900940124CDE90145694648460395DA
:1043A000FEF7C6F80096CDE9014569461B4803951E
:1043B000FEF7BEF80097CDE90145694650460395E2
:1043C000FEF7B6F81020CDE900040226CDE902463A
:1043D00069465846FEF7ACF8302000901348CDE906
:1043E000010469461248FEF7A3F8CDE9024600949D
:1043F00069460A480194FEF79BF8CDF80080CDE9A4
:104400000145694608480395FEF792F807B0BDE8F4
:10441000F08F0000303802400018024000040240D3
:10442000001C024000000240001402400000211065
:1044300000080240104810B50E4901604FF4827127
:104440004160002181600122C160C0E90412520272
:1044500082613822C0E90721416281620A21C1627A
:10446000FEF79AFC002803D0BDE81040FDF7ABB87A
:1044700010BD0000003001407405002010B588B068
:104480001C216846FBF758FF144813490024C0E973
:10449000001441F28731C0E9024104618461FEF7F2
:1044A000B3FE08B1FDF78FF80C48FFF76EF908B1BD
:1044B000FDF789F86020CDE90004029400226946E6
:1044C00006480494FFF7F9F808B1FDF77CF80348B3
:1044D000FFF756F808B010BD004401408C070020DB
:1044E0000B4810B509490160A7214160002140F245
:1044F000E732C0E9021201618161FEF785FE002802
:1045000003D0BDE81040FDF75EB810BD0048014083
:10451000CC07002010B588B01C216846FBF70CFFC3
:10452000124811490024016040F24731C0E90114EA
:104530002421C0E903148461FFF727F908B1FDF7CE
:1045400042F8602000901220CDE901040022694663
:1045500006480494FFF7B1F808B1FDF734F80348B2
:10456000FFF70EF808B010BD001800400C0800203E
:1045700010B592B000240F941C2168461094FBF7EC
:10458000DBFE202107A8FBF7D7FE2D482B49016051
:10459000A721C0E9011444F62061C0E90314446175
:1045A0008461FFF7F2F808B1FDF70DF80F940FA939
:1045B00023481094FEF7E0FD08B1FDF704F86020F1
:1045C00000904FF47A70CDE90104039404940594AB
:1045D000002269461A480694FFF76FF808B1FCF705
:1045E000F2FF042269461648FFF767F808B1FCF7A6
:1045F000EAFF082269461248FFF75FF808B1FCF7A6
:10460000E2FF0C2269460E48FFF757F808B1FCF7A5
:10461000DAFF0794089409944FF400500A94CDE906
:104620000B4007A906480E94FEF77BFD08B1FCF786
:10463000CAFF0348FEF7A4FF12B010BD00000140FE
:104640008C06002010B58EB00024079408940994BD
:104650000A940B941C2168460C94FBF76DFE1F48CE
:104660001D49016040F24731C0E901142421C0E92D
:1046700003148461FEF7C8FD08B1FCF7A4FF4FF4F2
:104680008050079007A91548FEF75AFE08B1FCF7BD
:104690009AFF1248FFF779F808B1FCF794FF0B94E2
:1046A0000BA90E480C94FEF767FD08B1FCF78BFFD1
:1046B000602000901220CDE90104082269460748D5
:1046C0000494FEF7FAFF08B1FCF77DFF0348FEF7FC
:1046D00057FF0EB010BD000000080040CC060020BF
:1046E00010B58EB000240794089409940A940B9492
:1046F0001C2168460C94FBF71FFE234821490160EA
:104700004721C0E9011444F61F61C0E90314846124
:10471000FEF77AFD08B1FCF756FF4FF48050079082
:1047200007A91948FEF70CFE08B1FCF74CFF164824
:10473000FFF72BF808B1FCF746FF0B940BA91248C2
:104740000C94FEF719FD08B1FCF73DFF60200090C6
:104750004FF47A70CDE90104002269460A480494B6
:10476000FEF7ABFF08B1FCF72EFF042269460648AE
:10477000FEF7A3FF08B1FCF726FF0348FEF700FF92
:104780000EB010BD000C00400C0700201CB500242A
:104790000F4800940D490194016041F61F41C0E9A2
:1047A000011442F20F718461C160FEF72DFD08B162
:1047B000FCF709FF0094694605480194FEF7DCFC0C
:1047C000002801D0FCF7FFFE1CBD000000100040D7
:1047D0004C0700200C4810B50A4901604FF4E13144
:1047E0004160002181600C22C160C0E90412816136
:1047F000C161FFF72DF9002803D0BDE81040FCF798
:10480000E2BE10BD007800404C0800200C4810B5F6
:104810000A4901604FF4E1314160002181600C22BE
:10482000C160C0E904128161C161FFF711F900287C
:1048300003D0BDE81040FCF7C6BE10BD001001401B
:104840008C0800200C4810B50A4901604FF4E13192
:104850004160002181600C22C160C0E904128161C5
:10486000C161FFF7F5F8002803D0BDE81040FCF760
:10487000AABE10BD00440040CC0800200D4810B571
:104880000B4901600C49416000214FF48062816056
:10489000C0E903120C22C0E90521C161FFF7D8F875
:1048A000002803D0BDE81040FCF78DBE10BD00000D
:1048B000004800400C090020A08601000C4810B5FB
:1048C0000A4901604FF4E1314160002181600C220E
:1048D000C160C0E904128161C161FFF7B9F8002825
:1048E00003D0BDE81040FCF76EBE10BD00140140BF
:1048F0004C090020FEE77047F0EE401A00B531EE9B
:10490000E01AC0ED080AC0ED051A80ED0B1A90ED13
:10491000150A01469FED6D2A71EEE00AB5EEC00A58
:10492000F1EE600AF1EE10FA0ED0B5EEC01AF1EE1B
:1049300010FA02DDF0EE412A01E0F0EE602AF4EE1A
:10494000C02AF1EE10FA7CDC91ED160AB5EEC00A31
:10495000F1EE10FA0BD0B5EEC01AF1EE10FA01DD4F
:10496000F0EE410AF4EEC00AF1EE10FA69D3CA6D16
:1049700001F13400032A02D0042A37D07AE091ED05
:10498000000A20EE010A81ED0C0A91ED0D0AD1ED2D
:10499000010A00EE810A81ED0D0A91ED0A0AD1EDBE
:1049A000020A31EE400A20EE200A81ED0E0A91ED56
:1049B000190AB8EE400A03F0D6FE91ED0C0AD1EDCB
:1049C0000D0A01F13C0030EE200AD1ED0E0A30EE66
:1049D000200A81ED0F0A91ED180AB8EEC00A03F023
:1049E000C2FE91ED0F0A81ED100A43E091ED0A0A33
:1049F000D1ED002A71EE400A60EEA20AC1ED0C0A68
:104A0000D1ED010A60EE810AC1ED0D0AF0EE000A57
:104A100000EE601A91ED090AD1ED020A31EE000AAA
:104A200020EE200A81ED0E0A91ED190AB8EE400A37
:104A300003F099FE91ED0C0AD1ED0D0A30EE200A3B
:104A400000E03CE0D1ED0E0A01F1500030EE200A0A
:104A500081ED120AD1ED130A30EE800A81ED140ABD
:104A600091ED180AB8EEC00A03F07DFE91ED140A2C
:104A700081ED130A91ED0A0A81ED090A91ED0B0A05
:104A800081ED0A0A91ED070A81ED060A91ED080A07
:104A900081ED070A91ED040A81ED030A91ED050A03
:104AA00081ED040AC86D032802D091ED140A00BDFF
:104AB000B0EEE10A10EE100A054A904202DCB0EEB8
:104AC000420A00BD91ED0F0A00BD00000000000089
:104AD0000000404000F15C0CDFED031A8CE80E0092
:104AE00080EC040A704700000000000080EC030A1C
:104AF0007047704710B50B4C012204212046FDF78A
:104B000008FE012208212046FDF703FE01221021A4
:104B10002046FDF7FEFD20460122BDE81040202181
:104B2000FDF7F7BD001C024070B50D4D00EB800491
:104B300005EB84060B48D6ED020AFFF7DDFEB6F959
:104B40000C0000EE900A0848F8EEE00AFFF7D4FEE9
:104B5000BDEEC00A10EE100A25F8240070BD00005A
:104B60005C0C002044100020740F00202DE9F04759
:104B700006464F484F4C4FF000092DED028BB0EE2A
:104B8000408A827A012A34D04B48DFF8308100F520
:104B9000D07100F502752046B1EE480AB0F95C000C
:104BA0004FF4B477022A40D0032A29D100EE900AAC
:104BB0000846F8EEE00AFFF79FFEBDEEC00A10EED1
:104BC000100A24F8500FB4F9200000EE100A28460D
:104BD000F8EEC00AB0EE480AFFF78EFEBDEEC00A3E
:104BE00010EE100AA08298F80000444601280BD06D
:104BF0003CE024F8509F3249A4F81490A1F80090AA
:104C0000BDEC028BBDE8F087B7FBF6F06178484356
:104C100000EE100A0020B8EE400AFFF785FF60782A
:104C2000401C607084F80090EAE700EE900A0846A5
:104C3000F8EEE00AFFF760FEBDEEC00A10EE100AC3
:104C400024F8500FB4F9200000EE100A2846F8EEC0
:104C5000C00AB0EE480AFFF74FFEBDEEC00A10EEE4
:104C6000100AA08298F80000444678B1B7FBF6F02D
:104C700098F80110BDEC028B4843BDE8F04700EE08
:104C8000100A0020B8EE400AFFF74EBFB7FBF6F05F
:104C90006178484300EE100A0020B8EE400AFFF7A2
:104CA00043FF6078401C607001202070A8E700007E
:104CB0001E0D0020840C002014110020A8000020EC
:104CC0005C0C00202DE9F0412DED048B00F014FF69
:104CD0003348344DB0F9041009B9C288EAB3B0F9C9
:104CE000060000EE100AF8EEC00A00EE101AB8EE48
:104CF000C00A05F0D9FF2C4E9FED2C8ADFED2C8ADF
:104D00009FED2C9ADFED2C9ADFF8B080002400BFD5
:104D100056F82400B0EE482A00EE100AF0EE681AA9
:104D2000B0EE491AB8EEC00AF0EE690A04F098FA3B
:104D3000BDEEC00A04EB840705EB870110EE100AF4
:104D400046F82400B1F90C1000EE101AF8EEC00A73
:104D500000EE100AB8EEC00A00E011E004EB840097
:104D600000EBC40108EBC100FFF7C6FDBDEEC00AB1
:104D7000641C042C10EE100A25F82700C8DB04E0A0
:104D800000202880A8822885A887FCF721FBFCF753
:104D9000B5FABDEC048BBDE8F041FCF743BB000065
:104DA0001E0D0020840C0020A814002000007A456D
:104DB00000007AC500002544000025C4141100201D
:104DC00005490448C979017002490120891F88708A
:104DD00070470000E60100203C150020194A1A48DF
:104DE00000214318DB7A5354491C0429F9DB164A85
:104DF000743200214318DB7B5354491C0229F9DB30
:104E0000114A7632002143185B7C5354491C022915
:104E1000F9DB0D4A783200214318DB7C5354491CDE
:104E20000229F9DB084907486C3128384A8942824F
:104E300043899A1A82818989C289511A0182012182
:104E400081707047080200203C15002030B53E49B3
:104E500086B0A1F15D006C46C2790A700A46037AF9
:104E60005370417A8DF80010817A931C8DF80110EF
:104E70000021655C5D54491C0229FADBC17A8DF87A
:104E80000410017B131D8DF80510002101AC655C39
:104E90005D54491C0229FADB417B8DF80810817BA7
:104EA000931D8DF80910002102AC655C5D54491C0E
:104EB0000229FADBC17B244B8DF80C10017C0833EE
:104EC0008DF80D10002103AC655C5D54491C02296E
:104ED000FADB417C1C4B8DF81010817C0A338DF875
:104EE0001110002104AC655C5D54491C0229FADBF9
:104EF000C37C8DF814301449007D0C318DF81500F9
:104F0000002005AB1C5C0C54401C0228FADB0F4847
:104F100092880281C82A07D0FA2A0AD04FF4F07189
:104F20009FED0B0A418109E0F02141819FED090AC3
:104F300004E04FF4B4719FED080A418180ED080A46
:104F40000121817006B030BD99150020E0010020DC
:104F50000000A04200002042000070420C4A10B540
:104F60000A48D17903460170147A00205C70991CBC
:104F70001418647A0C54401C0428F9DB0348D3F855
:104F800002102C38C1610121817010BD0C0200207B
:104F90003C1500200448C07910F00F0F02D10349DE
:104FA0001E204871704700003C150020E0010020E1
:104FB00038B504461248134B0068B0FBF3F04FF4C9
:104FC0007A73584300906068B0F5827F0DD10B462C
:104FD000009200228021204600F016F870B1606D2A
:104FE00040F020006065032038BD009830B1401EBD
:104FF000009020688068C0430006F6D5002038BDC8
:105000001000002000366E012DE9F0411D461746C4
:105010000E460446DDF8188008E0681C06D0FDF74F
:105020007DFBA0EB0800A8420BD255B12068806838
:1050300036EA000030D00020B842EED10020BDE8B2
:10504000F0812068416821F0E00141606068B0F5BE
:10505000827F0BD1A068B0F5004F02D0B0F5806F11
:1050600004D12068016821F040010160A06AB0F518
:10507000005F09D12068016821F4005101602068B7
:10508000016841F400510160012084F851000020C2
:1050900084F850000320D2E70120CDE7124D134FD2
:1050A000DFF84C80134E00243078012818D02C8073
:1050B000AC822C85AC87A5F85040A5F864403C80B4
:1050C000BC82A8F80040A8F81440FCF7ABF9FCF744
:1050D00015F9FCF77DF93470642004F0C6F9E3E7B4
:1050E000FCF7F8F8F7E70000840C0020340C0020EF
:1050F0005C0C0020A4000020FEF7AAFFFCE70000E3
:10510000094900202DED028B084C9FED098A08808B
:1051100020780028FCD00620B0EE480AFFF726FDD4
:10512000FFF7D0FDF4E7000014000020A4000020E9
:105130000000FA4510B5FDF7F7FA05F039FF012830
:1051400003D0BDE8104005F0C5BE10BD30B593B02A
:1051500030216846FBF7F0F814210CA8FBF7ECF8B7
:105160001A480025016841F080510160006800F094
:10517000805011901648016841F440410160006878
:10518000022400F44040119001200090000401909E
:105190008001CDE906400C2008904FF4A870CDE9BD
:1051A000090407200B906846FDF748FC0CA90F2066
:1051B00081E831004FF4A0500F90E00210900521DB
:1051C0000CA8FDF74FFB13B030BD00004038024083
:1051D000007000401048016841F4700101600F4800
:1051E000016841F0010101600C4A002108321160A0
:1051F00002680B4B1A400260031D0A4A1A600268DB
:1052000022F48022026005480C30016002495806F1
:10521000803908607047000088ED00E000380240E7
:10522000FFFFF6FE1030002410B50448FEF7F4F836
:10523000BDE810400248FEF7EFB800008C060020E1
:10524000CC07002010B50A4C2068C068C043C007D6
:1052500009D1084800698047216800204862216818
:105260006420C862E06021686FF00100086110BD31
:10527000FC140020EC0000200148FEF7CDB800002F
:105280004C070020F0B50268254C264D264E274FCE
:10529000274B4FF0804CA04209D0604507D0A84270
:1052A00005D0B04203D0B84201D0984204D122F0D8
:1052B000700E4A6842EA0E02A0421BD0604519D027
:1052C000A84217D0B04215D0B84213D0984211D09E
:1052D000184DA8420ED0184DA8420BD0174DA84229
:1052E00008D0174DA84205D0164DA84202D0164D41
:1052F000A84203D122F44075CA682A434D6922F0BE
:1053000080022A4302608A68C2620A688262A042FE
:1053100001D0984201D10969016301214161F0BDC9
:10532000000001400004004000080040000C004064
:105330000004014000400140004401400048014099
:1053400000180040001C00400020004010B501F093
:105350001F030121046A99408C430462016A9A4048
:105360001143016210BD10B5846842EA032224F49F
:105370007F440A432243826010BD826822F070029B
:105380000A4342F00701816070470000F0B5026AED
:1053900022F001020262036A42688469124E24F01C
:1053A00073050C682C4323F002058B682B430D4DCD
:1053B000A84201D0B04205D123F00807CB683B4397
:1053C00023F00403A84201D0B04205D14D6922F474
:1053D000407215438A692A43426084614968416387
:1053E0000362F0BD0000014000040140F0B5026A14
:1053F00022F010020262026A436884690D6824F494
:10540000E64444EA05248D6822F0200242EA0512AF
:105410000F4D104EA84201D0B04206D1CF6822F005
:10542000800242EA071222F04002A84201D0B042B4
:1054300007D14D6923F4406343EA85038D6943EA4C
:10544000850343608461496881630262F0BD0000A6
:105450000000014000040140F0B5026A22F48072AD
:105460000262026A4368C46922F4007224F0730580
:105470000C68124E2C438D6842EA05220E4DA8425C
:1054800001D0B04206D1CF6822F4006242EA07227E
:1054900022F48062A84201D0B04207D14D6923F4C2
:1054A000405343EA05138D6943EA05134360C46121
:1054B0004968C1630262F0BD000001400004014080
:1054C00030B5026A22F480520262046A4268C369FB
:1054D0000D6823F4E64343EA05238D6824F4005461
:1054E00044EA0534084DA84202D0084DA84204D130
:1054F0004D6922F4804242EA85124260C3614968E4
:105500000164046230BD000000000140000401405D
:1055100010B5036A046A24F001040462846924F06B
:10552000F00444EA021423F00A020A43846102628E
:1055300010BD10B5036A23F0100303628369046A87
:1055400023F4704343EA023224F0A00343EA01113A
:105550008261016210BD0000F8B5064610480D4694
:105560000024016841F0040101600068032200F09A
:105570000400009011461E20FDF742F91E20FDF7A1
:1055800031F9094A07481060C2E90154C2E90364CD
:105590001046FDF739FEBDE8F8400348FDF7AABE06
:1055A0004038024000080040FC14002010B5806B19
:1055B0000021C185C184FEF796F910BD70B5846BDA
:1055C0002068406994F83910C0F3C01000252129E3
:1055D00004D118B1E584204600F062F820684069E3
:1055E00094F83A10C0F38010222904D118B1E5854F
:1055F000204600F047F8E06B40F01000E0632046E2
:10560000FEF771F970BD10B50146806B0968096835
:10561000C90513D40021C1850168CA6822F48072CB
:10562000CA6001684A6922F001024A6101684A6958
:1056300022F040024A61202180F83A10FEF750FC27
:1056400010BD10B5806BFEF761FC10BD10B50146B2
:10565000806B09680968C9050CD40021C184016800
:105660004A6922F080024A610068C16841F0400145
:10567000C16010BDFEF7E8FC10BD10B5806BFEF7F1
:10568000E4FC10BD0168CA6822F49072CA60016827
:105690004A6922F001024A61202180F83A107047DD
:1056A0000168CA6822F0C002CA60202180F839105F
:1056B000704710B590F83A10222901D0022010BD91
:1056C0008168B1F5805F11D00169002901681FD0A0
:1056D000496801F07F03816A4A1C82620B70C18DA8
:1056E000491E0904090CC18518D02BE00269816AA2
:1056F000002A0268526805D0D2B20A80816A491C29
:105700008162ECE7C2F308020A80816A891CF7E72C
:105710004A68816A4B1C83620A70E0E70168CA68C4
:1057200022F02002CA600168CA6822F48072CA604E
:1057300001684A6922F001024A61202180F83A108A
:10574000FEF7CEFB002010BD2DE9F04104460068B5
:105750000169E26821F44051114301612169A068A7
:10576000E26908436169114308432168CA6849F244
:105770000C639A430243CA6020684169A26921F41C
:10578000407111434161E069192764253226B0F563
:10579000004F354A354920684FF0000806D088424E
:1057A00001D0904236D1FDF707F935E0884201D0AB
:1057B000904202D1FDF700F901E0FDF7EDF86168D4
:1057C0004A18A0FB070148EB0803FAF76BFD0146F6
:1057D000B0FBF5F00201B1FBF5F06FF01803584390
:1057E00001EB800006EBC000B0FBF5F000F0F80024
:1057F00002EB4002B1FBF5F0584301EB800006EBF1
:10580000C000B0FBF5F000F007002168104488608C
:10581000BDE8F081FDF7C0F861688B0F8A00A0FB3E
:105820000701FAF73FFD0146B0FBF5F06FF01802F3
:10583000504301EB800006EB0010B0FBF5F000F0E8
:10584000F002B1FBF5F002EB0012B1FBF5F06FF0E6
:105850001803584301EB800006EB0010B0FBF5F095
:1058600000F00F00D1E700000014014000100140DB
:1058700090F83910212901D0022070478168B1F5D4
:10588000805F016A0BD04A1C02620268097851608D
:10589000C18C491E0904090CC1840ED017E0098887
:1058A0000268C1F30801516001690029016A02D050
:1058B000491C0162ECE7891CFBE70168CA6822F019
:1058C0008002CA600068C16841F04001C1600020E8
:1058D00070472DE9F041984617460E460446069D4E
:1058E0001DE0681C1BD02DB1FCF718FFA0EB0800D1
:1058F000A84214D92068C16821F4D071C160206821
:10590000416921F001014161202084F8390084F8C7
:105910003A00002084F838000320BDE8F0812068B8
:10592000006836EA000004D00020B842D9D0002038
:10593000F3E70120F9E700000148FDF7FFBF000091
:105940008C0800200148FDF7F9BF0000CC080020BA
:1059500010B50448FDF7F2FFBDE81040014804F01F
:1059600093B800000C09002010B50848FDF7E6FFC9
:105970000648FDF7DEFF2028FAD10122044903483A
:10598000FEF784FA0028F8D110BD00004C09002071
:1059900018000020FEE700002DE9F0412DED048BFA
:1059A000002784B04A4D4B4C28462978807800293E
:1059B0007CD069786054491C697065287CD1607816
:1059C000C0099FED459B9FED468BB4F8010004F1A3
:1059D0000C0640BAC0F30E000AD0FAF7E2FD53EC11
:1059E000182BFAF75BFD53EC192BFAF751FD05E084
:1059F000FAF7D7FD53EC182BFAF750FDFAF722FE11
:105A00007060E078C009B4F8030040BAC0F30E003B
:105A10000AD0FAF7C6FD53EC182BFAF73FFD53EC0A
:105A2000192BFAF735FD05E0FAF7BBFD53EC182BFF
:105A3000FAF734FDFAF706FE30606079C009B4F871
:105A4000050040BAC0F30E000AD0FAF7AAFD53ECE5
:105A5000182BFAF723FD53EC192BFAF719FD05E083
:105A6000FAF79FFD53EC182BFAF718FDFAF7EAFD49
:105A7000F0606F702F70B046F068FAF79FFD064631
:105A80000F46D8F80000FAF799FD04460D46D8F8FD
:105A90000400FAF793FD8DE8F00041EC100B12A022
:105AA00053EC102B00F09EF806E0FFE7732803D1BB
:105AB000012129702070697004B005490122BDECF4
:105AC000048B891CBDE8F0410A48FEF793B9000039
:105AD00098000020B8140020000000000000594089
